{
  "address": "0x635f5f12bCd85B7710d75bda75cfBD34Ae3E3b49",
  "abi": [
    {
      "inputs": [
        {
          "internalType": "address",
          "name": "priceFeedAddress",
          "type": "address"
        }
      ],
      "stateMutability": "nonpayable",
      "type": "constructor"
    },
    {
      "inputs": [],
      "name": "NotOwner",
      "type": "error"
    },
    {
      "stateMutability": "payable",
      "type": "fallback"
    },
    {
      "inputs": [],
      "name": "MINIMUM_USD",
      "outputs": [
        {
          "internalType": "uint256",
          "name": "",
          "type": "uint256"
        }
      ],
      "stateMutability": "view",
      "type": "function"
    },
    {
      "inputs": [
        {
          "internalType": "address",
          "name": "",
          "type": "address"
        }
      ],
      "name": "addrressToAmountFunded",
      "outputs": [
        {
          "internalType": "uint256",
          "name": "",
          "type": "uint256"
        }
      ],
      "stateMutability": "view",
      "type": "function"
    },
    {
      "inputs": [],
      "name": "fund",
      "outputs": [],
      "stateMutability": "payable",
      "type": "function"
    },
    {
      "inputs": [
        {
          "internalType": "uint256",
          "name": "",
          "type": "uint256"
        }
      ],
      "name": "funders",
      "outputs": [
        {
          "internalType": "address",
          "name": "",
          "type": "address"
        }
      ],
      "stateMutability": "view",
      "type": "function"
    },
    {
      "inputs": [],
      "name": "i_owner",
      "outputs": [
        {
          "internalType": "address",
          "name": "",
          "type": "address"
        }
      ],
      "stateMutability": "view",
      "type": "function"
    },
    {
      "inputs": [],
      "name": "priceFeed",
      "outputs": [
        {
          "internalType": "contract AggregatorV3Interface",
          "name": "",
          "type": "address"
        }
      ],
      "stateMutability": "view",
      "type": "function"
    },
    {
      "inputs": [],
      "name": "withdraw",
      "outputs": [],
      "stateMutability": "nonpayable",
      "type": "function"
    },
    {
      "stateMutability": "payable",
      "type": "receive"
    }
  ],
  "transactionHash": "0x4d56536fcc5d6ef487d582d4c34b6291428ec2ca62b956886d574abed081cc44",
  "args": [
    "0x8A753747A1Fa494EC906cE90E9f37563A8AF630e"
  ],
  "numDeployments": 1,
  "solcInputHash": "1255707796cf707887e39492a4dfd336",
  "bytecode": "0x60a060405234801561001057600080fd5b5060405162000fe238038062000fe283398181016040528101906100349190610112565b3373ffffffffffffffffffffffffffffffffffffffff1660808173ffffffffffffffffffffffffffffffffffffffff168152505080600260006101000a81548173ffffffffffffffffffffffffffffffffffffffff021916908373ffffffffffffffffffffffffffffffffffffffff1602179055505061013f565b600080fd5b600073ffffffffffffffffffffffffffffffffffffffff82169050919050565b60006100df826100b4565b9050919050565b6100ef816100d4565b81146100fa57600080fd5b50565b60008151905061010c816100e6565b92915050565b600060208284031215610128576101276100af565b5b6000610136848285016100fd565b91505092915050565b608051610e8062000162600039600081816102fe01526105710152610e806000f3fe6080604052600436106100745760003560e01c8063741bef1a1161004e578063741bef1a1461010c578063b60d428814610137578063dba6335f14610141578063dc0d3dff1461016c57610083565b8063260be1711461008d5780633ccfd60b146100ca5780636b69a592146100e157610083565b36610083576100816101a9565b005b61008b6101a9565b005b34801561009957600080fd5b506100b460048036038101906100af91906107b8565b6102e4565b6040516100c191906107fe565b60405180910390f35b3480156100d657600080fd5b506100df6102fc565b005b3480156100ed57600080fd5b506100f661053c565b60405161010391906107fe565b60405180910390f35b34801561011857600080fd5b50610121610549565b60405161012e9190610878565b60405180910390f35b61013f6101a9565b005b34801561014d57600080fd5b5061015661056f565b60405161016391906108a2565b60405180910390f35b34801561017857600080fd5b50610193600480360381019061018e91906108e9565b610593565b6040516101a091906108a2565b60405180910390f35b6802b5e3af16b18800006101e8600260009054906101000a900473ffffffffffffffffffffffffffffffffffffffff16346105d290919063ffffffff16565b1015610229576040517f08c379a000000000000000000000000000000000000000000000000000000000815260040161022090610973565b60405180910390fd5b6000339080600181540180825580915050600190039060005260206000200160009091909190916101000a81548173ffffffffffffffffffffffffffffffffffffffff021916908373ffffffffffffffffffffffffffffffffffffffff16021790555034600160003373ffffffffffffffffffffffffffffffffffffffff1673ffffffffffffffffffffffffffffffffffffffff16815260200190815260200160002060008282546102db91906109c2565b92505081905550565b60016020528060005260406000206000915090505481565b7f000000000000000000000000000000000000000000000000000000000000000073ffffffffffffffffffffffffffffffffffffffff163373ffffffffffffffffffffffffffffffffffffffff1614610381576040517f30cd747100000000000000000000000000000000000000000000000000000000815260040160405180910390fd5b60005b60008054905081101561042c5760008082815481106103a6576103a5610a18565b5b9060005260206000200160009054906101000a900473ffffffffffffffffffffffffffffffffffffffff1690506000600160008373ffffffffffffffffffffffffffffffffffffffff1673ffffffffffffffffffffffffffffffffffffffff1681526020019081526020016000208190555050808061042490610a47565b915050610384565b50600067ffffffffffffffff81111561044857610447610a90565b5b6040519080825280602002602001820160405280156104765781602001602082028036833780820191505090505b506000908051906020019061048c9291906106ae565b5060003373ffffffffffffffffffffffffffffffffffffffff16476040516104b390610af0565b60006040518083038185875af1925050503d80600081146104f0576040519150601f19603f3d011682016040523d82523d6000602084013e6104f5565b606091505b5050905080610539576040517f08c379a000000000000000000000000000000000000000000000000000000000815260040161053090610b51565b60405180910390fd5b50565b6802b5e3af16b188000081565b600260009054906101000a900473ffffffffffffffffffffffffffffffffffffffff1681565b7f000000000000000000000000000000000000000000000000000000000000000081565b600081815481106105a357600080fd5b906000526020600020016000915054906101000a900473ffffffffffffffffffffffffffffffffffffffff1681565b6000806105de8361060e565b90506000670de0b6b3a764000085836105f79190610b71565b6106019190610bfa565b9050809250505092915050565b6000808273ffffffffffffffffffffffffffffffffffffffff1663feaf968c6040518163ffffffff1660e01b815260040160a06040518083038186803b15801561065757600080fd5b505afa15801561066b573d6000803e3d6000fd5b505050506040513d601f19601f8201168201806040525081019061068f9190610cb8565b5050509150506402540be400816106a69190610d33565b915050919050565b828054828255906000526020600020908101928215610727579160200282015b828111156107265782518260006101000a81548173ffffffffffffffffffffffffffffffffffffffff021916908373ffffffffffffffffffffffffffffffffffffffff160217905550916020019190600101906106ce565b5b5090506107349190610738565b5090565b5b80821115610751576000816000905550600101610739565b5090565b600080fd5b600073ffffffffffffffffffffffffffffffffffffffff82169050919050565b60006107858261075a565b9050919050565b6107958161077a565b81146107a057600080fd5b50565b6000813590506107b28161078c565b92915050565b6000602082840312156107ce576107cd610755565b5b60006107dc848285016107a3565b91505092915050565b6000819050919050565b6107f8816107e5565b82525050565b600060208201905061081360008301846107ef565b92915050565b6000819050919050565b600061083e6108396108348461075a565b610819565b61075a565b9050919050565b600061085082610823565b9050919050565b600061086282610845565b9050919050565b61087281610857565b82525050565b600060208201905061088d6000830184610869565b92915050565b61089c8161077a565b82525050565b60006020820190506108b76000830184610893565b92915050565b6108c6816107e5565b81146108d157600080fd5b50565b6000813590506108e3816108bd565b92915050565b6000602082840312156108ff576108fe610755565b5b600061090d848285016108d4565b91505092915050565b600082825260208201905092915050565b7f53656920756e6f2073636f727a6f000000000000000000000000000000000000600082015250565b600061095d600e83610916565b915061096882610927565b602082019050919050565b6000602082019050818103600083015261098c81610950565b9050919050565b7f4e487b7100000000000000000000000000000000000000000000000000000000600052601160045260246000fd5b60006109cd826107e5565b91506109d8836107e5565b9250827fffffffffffffffffffffffffffffffffffffffffffffffffffffffffffffffff03821115610a0d57610a0c610993565b5b828201905092915050565b7f4e487b7100000000000000000000000000000000000000000000000000000000600052603260045260246000fd5b6000610a52826107e5565b91507fffffffffffffffffffffffffffffffffffffffffffffffffffffffffffffffff821415610a8557610a84610993565b5b600182019050919050565b7f4e487b7100000000000000000000000000000000000000000000000000000000600052604160045260246000fd5b600081905092915050565b50565b6000610ada600083610abf565b9150610ae582610aca565b600082019050919050565b6000610afb82610acd565b9150819050919050565b7f43616c6c206661696c6564000000000000000000000000000000000000000000600082015250565b6000610b3b600b83610916565b9150610b4682610b05565b602082019050919050565b60006020820190508181036000830152610b6a81610b2e565b9050919050565b6000610b7c826107e5565b9150610b87836107e5565b9250817fffffffffffffffffffffffffffffffffffffffffffffffffffffffffffffffff0483118215151615610bc057610bbf610993565b5b828202905092915050565b7f4e487b7100000000000000000000000000000000000000000000000000000000600052601260045260246000fd5b6000610c05826107e5565b9150610c10836107e5565b925082610c2057610c1f610bcb565b5b828204905092915050565b600069ffffffffffffffffffff82169050919050565b610c4a81610c2b565b8114610c5557600080fd5b50565b600081519050610c6781610c41565b92915050565b6000819050919050565b610c8081610c6d565b8114610c8b57600080fd5b50565b600081519050610c9d81610c77565b92915050565b600081519050610cb2816108bd565b92915050565b600080600080600060a08688031215610cd457610cd3610755565b5b6000610ce288828901610c58565b9550506020610cf388828901610c8e565b9450506040610d0488828901610ca3565b9350506060610d1588828901610ca3565b9250506080610d2688828901610c58565b9150509295509295909350565b6000610d3e82610c6d565b9150610d4983610c6d565b9250827f7fffffffffffffffffffffffffffffffffffffffffffffffffffffffffffffff0482116000841360008413161615610d8857610d87610993565b5b817f80000000000000000000000000000000000000000000000000000000000000000583126000841260008413161615610dc557610dc4610993565b5b827f80000000000000000000000000000000000000000000000000000000000000000582126000841360008412161615610e0257610e01610993565b5b827f7fffffffffffffffffffffffffffffffffffffffffffffffffffffffffffffff0582126000841260008412161615610e3f57610e3e610993565b5b82820290509291505056fea2646970667358221220e5d42813b01e31149c5a8e0be2ae2a2b14ee8e2cae6ab4fab4e06be99fddb9b364736f6c63430008090033",
  "devdoc": {
    "kind": "dev",
    "methods": {},
    "version": 1
  },
  "userdoc": {
    "kind": "user",
    "methods": {},
    "version": 1
  },
  "storageLayout": {
    "storage": [
      {
        "astId": 62,
        "contract": "contracts/FundMe.sol:FundMe",
        "label": "funders",
        "offset": 0,
        "slot": "0",
        "type": "t_array(t_address)dyn_storage"
      },
      {
        "astId": 66,
        "contract": "contracts/FundMe.sol:FundMe",
        "label": "addrressToAmountFunded",
        "offset": 0,
        "slot": "1",
        "type": "t_mapping(t_address,t_uint256)"
      },
      {
        "astId": 71,
        "contract": "contracts/FundMe.sol:FundMe",
        "label": "priceFeed",
        "offset": 0,
        "slot": "2",
        "type": "t_contract(AggregatorV3Interface)45"
      }
    ],
    "types": {
      "t_address": {
        "encoding": "inplace",
        "label": "address",
        "numberOfBytes": "20"
      },
      "t_array(t_address)dyn_storage": {
        "base": "t_address",
        "encoding": "dynamic_array",
        "label": "address[]",
        "numberOfBytes": "32"
      },
      "t_contract(AggregatorV3Interface)45": {
        "encoding": "inplace",
        "label": "contract AggregatorV3Interface",
        "numberOfBytes": "20"
      },
      "t_mapping(t_address,t_uint256)": {
        "encoding": "mapping",
        "key": "t_address",
        "label": "mapping(address => uint256)",
        "numberOfBytes": "32",
        "value": "t_uint256"
      },
      "t_uint256": {
        "encoding": "inplace",
        "label": "uint256",
        "numberOfBytes": "32"
      }
    }
  }
}