{
  "address": "0xF346D53526a32713aCc0E736F91a519c02D0288D",
  "abi": [
    {
      "inputs": [
        {
          "internalType": "address",
          "name": "priceFeedAddress",
          "type": "address"
        }
      ],
      "stateMutability": "nonpayable",
      "type": "constructor"
    },
    {
      "inputs": [],
      "name": "FundMe__NotOwner",
      "type": "error"
    },
    {
      "inputs": [],
      "name": "MINIMUM_USD",
      "outputs": [
        {
          "internalType": "uint256",
          "name": "",
          "type": "uint256"
        }
      ],
      "stateMutability": "view",
      "type": "function"
    },
    {
      "inputs": [],
      "name": "cheaperWithdraw",
      "outputs": [],
      "stateMutability": "nonpayable",
      "type": "function"
    },
    {
      "inputs": [],
      "name": "fund",
      "outputs": [],
      "stateMutability": "payable",
      "type": "function"
    },
    {
      "inputs": [
        {
          "internalType": "address",
          "name": "funder",
          "type": "address"
        }
      ],
      "name": "getAddressToAmountFunded",
      "outputs": [
        {
          "internalType": "uint256",
          "name": "",
          "type": "uint256"
        }
      ],
      "stateMutability": "view",
      "type": "function"
    },
    {
      "inputs": [
        {
          "internalType": "uint256",
          "name": "index",
          "type": "uint256"
        }
      ],
      "name": "getFunder",
      "outputs": [
        {
          "internalType": "address",
          "name": "",
          "type": "address"
        }
      ],
      "stateMutability": "view",
      "type": "function"
    },
    {
      "inputs": [],
      "name": "getOwner",
      "outputs": [
        {
          "internalType": "address",
          "name": "",
          "type": "address"
        }
      ],
      "stateMutability": "view",
      "type": "function"
    },
    {
      "inputs": [],
      "name": "getPriceFeed",
      "outputs": [
        {
          "internalType": "contract AggregatorV3Interface",
          "name": "",
          "type": "address"
        }
      ],
      "stateMutability": "view",
      "type": "function"
    },
    {
      "inputs": [],
      "name": "withdraw",
      "outputs": [],
      "stateMutability": "nonpayable",
      "type": "function"
    }
  ],
  "transactionHash": "0x6d5f1690f6723e0b24cbd114047321927b33af427cfc105ee54feaf5443ca54e",
  "args": [
    "0x8A753747A1Fa494EC906cE90E9f37563A8AF630e"
  ],
  "numDeployments": 2,
  "solcInputHash": "4698d0c14538141e9f17ad750a05e6a2",
  "bytecode": "0x60a06040523480156200001157600080fd5b50604051620012e8380380620012e883398181016040528101906200003791906200011d565b3373ffffffffffffffffffffffffffffffffffffffff1660808173ffffffffffffffffffffffffffffffffffffffff168152505080600260006101000a81548173ffffffffffffffffffffffffffffffffffffffff021916908373ffffffffffffffffffffffffffffffffffffffff160217905550506200014f565b600080fd5b600073ffffffffffffffffffffffffffffffffffffffff82169050919050565b6000620000e582620000b8565b9050919050565b620000f781620000d8565b81146200010357600080fd5b50565b6000815190506200011781620000ec565b92915050565b600060208284031215620001365762000135620000b3565b5b6000620001468482850162000106565b91505092915050565b60805161116f62000179600039600081816101fe0152818161044d01526105d8015261116f6000f3fe60806040526004361061007b5760003560e01c80639e87a5cd1161004e5780639e87a5cd1461012a578063b60d428814610155578063be2693f01461015f578063d7b4750c146101765761007b565b80630343fb25146100805780633ccfd60b146100bd5780636b69a592146100d4578063893d20e8146100ff575b600080fd5b34801561008c57600080fd5b506100a760048036038101906100a29190610aa7565b6101b3565b6040516100b49190610aed565b60405180910390f35b3480156100c957600080fd5b506100d26101fc565b005b3480156100e057600080fd5b506100e961043c565b6040516100f69190610aed565b60405180910390f35b34801561010b57600080fd5b50610114610449565b6040516101219190610b17565b60405180910390f35b34801561013657600080fd5b5061013f610471565b60405161014c9190610b91565b60405180910390f35b61015d61049b565b005b34801561016b57600080fd5b506101746105d6565b005b34801561018257600080fd5b5061019d60048036038101906101989190610bd8565b61087a565b6040516101aa9190610b17565b60405180910390f35b6000600160008373ffffffffffffffffffffffffffffffffffffffff1673ffffffffffffffffffffffffffffffffffffffff168152602001908152602001600020549050919050565b7f000000000000000000000000000000000000000000000000000000000000000073ffffffffffffffffffffffffffffffffffffffff163373ffffffffffffffffffffffffffffffffffffffff1614610281576040517f579610db00000000000000000000000000000000000000000000000000000000815260040160405180910390fd5b60005b60008054905081101561032c5760008082815481106102a6576102a5610c05565b5b9060005260206000200160009054906101000a900473ffffffffffffffffffffffffffffffffffffffff1690506000600160008373ffffffffffffffffffffffffffffffffffffffff1673ffffffffffffffffffffffffffffffffffffffff1681526020019081526020016000208190555050808061032490610c63565b915050610284565b50600067ffffffffffffffff81111561034857610347610cac565b5b6040519080825280602002602001820160405280156103765781602001602082028036833780820191505090505b506000908051906020019061038c92919061099d565b5060003373ffffffffffffffffffffffffffffffffffffffff16476040516103b390610d0c565b60006040518083038185875af1925050503d80600081146103f0576040519150601f19603f3d011682016040523d82523d6000602084013e6103f5565b606091505b5050905080610439576040517f08c379a000000000000000000000000000000000000000000000000000000000815260040161043090610d7e565b60405180910390fd5b50565b6802b5e3af16b188000081565b60007f0000000000000000000000000000000000000000000000000000000000000000905090565b6000600260009054906101000a900473ffffffffffffffffffffffffffffffffffffffff16905090565b6802b5e3af16b18800006104da600260009054906101000a900473ffffffffffffffffffffffffffffffffffffffff16346108c190919063ffffffff16565b101561051b576040517f08c379a000000000000000000000000000000000000000000000000000000000815260040161051290610dea565b60405180910390fd5b6000339080600181540180825580915050600190039060005260206000200160009091909190916101000a81548173ffffffffffffffffffffffffffffffffffffffff021916908373ffffffffffffffffffffffffffffffffffffffff16021790555034600160003373ffffffffffffffffffffffffffffffffffffffff1673ffffffffffffffffffffffffffffffffffffffff16815260200190815260200160002060008282546105cd9190610e0a565b92505081905550565b7f000000000000000000000000000000000000000000000000000000000000000073ffffffffffffffffffffffffffffffffffffffff163373ffffffffffffffffffffffffffffffffffffffff161461065b576040517f579610db00000000000000000000000000000000000000000000000000000000815260040160405180910390fd5b6000808054806020026020016040519081016040528092919081815260200182805480156106de57602002820191906000526020600020905b8160009054906101000a900473ffffffffffffffffffffffffffffffffffffffff1673ffffffffffffffffffffffffffffffffffffffff1681526020019060010190808311610694575b5050505050905060005b815181101561076957600082828151811061070657610705610c05565b5b602002602001015190506000600160008373ffffffffffffffffffffffffffffffffffffffff1673ffffffffffffffffffffffffffffffffffffffff1681526020019081526020016000208190555050808061076190610c63565b9150506106e8565b50600067ffffffffffffffff81111561078557610784610cac565b5b6040519080825280602002602001820160405280156107b35781602001602082028036833780820191505090505b50600090805190602001906107c992919061099d565b5060003373ffffffffffffffffffffffffffffffffffffffff16476040516107f090610d0c565b60006040518083038185875af1925050503d806000811461082d576040519150601f19603f3d011682016040523d82523d6000602084013e610832565b606091505b5050905080610876576040517f08c379a000000000000000000000000000000000000000000000000000000000815260040161086d90610d7e565b60405180910390fd5b5050565b600080828154811061088f5761088e610c05565b5b9060005260206000200160009054906101000a900473ffffffffffffffffffffffffffffffffffffffff169050919050565b6000806108cd836108fd565b90506000670de0b6b3a764000085836108e69190610e60565b6108f09190610ee9565b9050809250505092915050565b6000808273ffffffffffffffffffffffffffffffffffffffff1663feaf968c6040518163ffffffff1660e01b815260040160a06040518083038186803b15801561094657600080fd5b505afa15801561095a573d6000803e3d6000fd5b505050506040513d601f19601f8201168201806040525081019061097e9190610fa7565b5050509150506402540be400816109959190611022565b915050919050565b828054828255906000526020600020908101928215610a16579160200282015b82811115610a155782518260006101000a81548173ffffffffffffffffffffffffffffffffffffffff021916908373ffffffffffffffffffffffffffffffffffffffff160217905550916020019190600101906109bd565b5b509050610a239190610a27565b5090565b5b80821115610a40576000816000905550600101610a28565b5090565b600080fd5b600073ffffffffffffffffffffffffffffffffffffffff82169050919050565b6000610a7482610a49565b9050919050565b610a8481610a69565b8114610a8f57600080fd5b50565b600081359050610aa181610a7b565b92915050565b600060208284031215610abd57610abc610a44565b5b6000610acb84828501610a92565b91505092915050565b6000819050919050565b610ae781610ad4565b82525050565b6000602082019050610b026000830184610ade565b92915050565b610b1181610a69565b82525050565b6000602082019050610b2c6000830184610b08565b92915050565b6000819050919050565b6000610b57610b52610b4d84610a49565b610b32565b610a49565b9050919050565b6000610b6982610b3c565b9050919050565b6000610b7b82610b5e565b9050919050565b610b8b81610b70565b82525050565b6000602082019050610ba66000830184610b82565b92915050565b610bb581610ad4565b8114610bc057600080fd5b50565b600081359050610bd281610bac565b92915050565b600060208284031215610bee57610bed610a44565b5b6000610bfc84828501610bc3565b91505092915050565b7f4e487b7100000000000000000000000000000000000000000000000000000000600052603260045260246000fd5b7f4e487b7100000000000000000000000000000000000000000000000000000000600052601160045260246000fd5b6000610c6e82610ad4565b91507fffffffffffffffffffffffffffffffffffffffffffffffffffffffffffffffff821415610ca157610ca0610c34565b5b600182019050919050565b7f4e487b7100000000000000000000000000000000000000000000000000000000600052604160045260246000fd5b600081905092915050565b50565b6000610cf6600083610cdb565b9150610d0182610ce6565b600082019050919050565b6000610d1782610ce9565b9150819050919050565b600082825260208201905092915050565b7f43616c6c206661696c6564000000000000000000000000000000000000000000600082015250565b6000610d68600b83610d21565b9150610d7382610d32565b602082019050919050565b60006020820190508181036000830152610d9781610d5b565b9050919050565b7f53656920756e6f2073636f727a6f000000000000000000000000000000000000600082015250565b6000610dd4600e83610d21565b9150610ddf82610d9e565b602082019050919050565b60006020820190508181036000830152610e0381610dc7565b9050919050565b6000610e1582610ad4565b9150610e2083610ad4565b9250827fffffffffffffffffffffffffffffffffffffffffffffffffffffffffffffffff03821115610e5557610e54610c34565b5b828201905092915050565b6000610e6b82610ad4565b9150610e7683610ad4565b9250817fffffffffffffffffffffffffffffffffffffffffffffffffffffffffffffffff0483118215151615610eaf57610eae610c34565b5b828202905092915050565b7f4e487b7100000000000000000000000000000000000000000000000000000000600052601260045260246000fd5b6000610ef482610ad4565b9150610eff83610ad4565b925082610f0f57610f0e610eba565b5b828204905092915050565b600069ffffffffffffffffffff82169050919050565b610f3981610f1a565b8114610f4457600080fd5b50565b600081519050610f5681610f30565b92915050565b6000819050919050565b610f6f81610f5c565b8114610f7a57600080fd5b50565b600081519050610f8c81610f66565b92915050565b600081519050610fa181610bac565b92915050565b600080600080600060a08688031215610fc357610fc2610a44565b5b6000610fd188828901610f47565b9550506020610fe288828901610f7d565b9450506040610ff388828901610f92565b935050606061100488828901610f92565b925050608061101588828901610f47565b9150509295509295909350565b600061102d82610f5c565b915061103883610f5c565b9250827f7fffffffffffffffffffffffffffffffffffffffffffffffffffffffffffffff048211600084136000841316161561107757611076610c34565b5b817f800000000000000000000000000000000000000000000000000000000000000005831260008412600084131616156110b4576110b3610c34565b5b827f800000000000000000000000000000000000000000000000000000000000000005821260008413600084121616156110f1576110f0610c34565b5b827f7fffffffffffffffffffffffffffffffffffffffffffffffffffffffffffffff058212600084126000841216161561112e5761112d610c34565b5b82820290509291505056fea264697066735822122020dd3616a788fd4b088767d263d81566527b522dfc88ca620a07c793c16881bc64736f6c63430008090033",
  "devdoc": {
    "author": "Aldo Testino",
    "details": "This implements price feeds as our library",
    "kind": "dev",
    "methods": {},
    "title": "A contract for crowd funding",
    "version": 1
  },
  "userdoc": {
    "kind": "user",
    "methods": {
      "fund()": {
        "notice": "This function funds this contract"
      },
      "withdraw()": {
        "notice": "This function withdraws to owner"
      }
    },
    "notice": "This contract is to demo a sample funding contract",
    "version": 1
  },
  "storageLayout": {
    "storage": [
      {
        "astId": 63,
        "contract": "contracts/FundMe.sol:FundMe",
        "label": "s_funders",
        "offset": 0,
        "slot": "0",
        "type": "t_array(t_address)dyn_storage"
      },
      {
        "astId": 67,
        "contract": "contracts/FundMe.sol:FundMe",
        "label": "s_addrressToAmountFunded",
        "offset": 0,
        "slot": "1",
        "type": "t_mapping(t_address,t_uint256)"
      },
      {
        "astId": 72,
        "contract": "contracts/FundMe.sol:FundMe",
        "label": "s_priceFeed",
        "offset": 0,
        "slot": "2",
        "type": "t_contract(AggregatorV3Interface)45"
      }
    ],
    "types": {
      "t_address": {
        "encoding": "inplace",
        "label": "address",
        "numberOfBytes": "20"
      },
      "t_array(t_address)dyn_storage": {
        "base": "t_address",
        "encoding": "dynamic_array",
        "label": "address[]",
        "numberOfBytes": "32"
      },
      "t_contract(AggregatorV3Interface)45": {
        "encoding": "inplace",
        "label": "contract AggregatorV3Interface",
        "numberOfBytes": "20"
      },
      "t_mapping(t_address,t_uint256)": {
        "encoding": "mapping",
        "key": "t_address",
        "label": "mapping(address => uint256)",
        "numberOfBytes": "32",
        "value": "t_uint256"
      },
      "t_uint256": {
        "encoding": "inplace",
        "label": "uint256",
        "numberOfBytes": "32"
      }
    }
  }
}