{
  "address": "0xCf7Ed3AccA5a467e9e704C703E8D87F634fB0Fc9",
  "abi": [
    {
      "inputs": [
        {
          "internalType": "address",
          "name": "vrfCoordinatorV2",
          "type": "address"
        },
        {
          "internalType": "uint256",
          "name": "entranceFee",
          "type": "uint256"
        },
        {
          "internalType": "bytes32",
          "name": "gasLane",
          "type": "bytes32"
        },
        {
          "internalType": "uint64",
          "name": "subscriptionId",
          "type": "uint64"
        },
        {
          "internalType": "uint32",
          "name": "callbackGasLimit",
          "type": "uint32"
        },
        {
          "internalType": "uint256",
          "name": "interval",
          "type": "uint256"
        }
      ],
      "stateMutability": "nonpayable",
      "type": "constructor"
    },
    {
      "inputs": [
        {
          "internalType": "address",
          "name": "have",
          "type": "address"
        },
        {
          "internalType": "address",
          "name": "want",
          "type": "address"
        }
      ],
      "name": "OnlyCoordinatorCanFulfill",
      "type": "error"
    },
    {
      "inputs": [
        {
          "internalType": "uint256",
          "name": "currentBalance",
          "type": "uint256"
        },
        {
          "internalType": "uint256",
          "name": "numPlayers",
          "type": "uint256"
        },
        {
          "internalType": "uint256",
          "name": "raffleState",
          "type": "uint256"
        }
      ],
      "name": "Raffle_UpkeepNotNeeded",
      "type": "error"
    },
    {
      "inputs": [],
      "name": "Raffle__NotEnoughETHEntered",
      "type": "error"
    },
    {
      "inputs": [],
      "name": "Raffle__NotOpen",
      "type": "error"
    },
    {
      "inputs": [],
      "name": "Raffle__TransferFailed",
      "type": "error"
    },
    {
      "anonymous": false,
      "inputs": [
        {
          "indexed": true,
          "internalType": "address",
          "name": "player",
          "type": "address"
        }
      ],
      "name": "RaffleEnter",
      "type": "event"
    },
    {
      "anonymous": false,
      "inputs": [
        {
          "indexed": true,
          "internalType": "uint256",
          "name": "requestId",
          "type": "uint256"
        }
      ],
      "name": "RequestedRaffleWinner",
      "type": "event"
    },
    {
      "anonymous": false,
      "inputs": [
        {
          "indexed": true,
          "internalType": "address",
          "name": "winner",
          "type": "address"
        }
      ],
      "name": "WinnerPicked",
      "type": "event"
    },
    {
      "inputs": [
        {
          "internalType": "bytes",
          "name": "",
          "type": "bytes"
        }
      ],
      "name": "checkUpkeep",
      "outputs": [
        {
          "internalType": "bool",
          "name": "upkeepNeeded",
          "type": "bool"
        },
        {
          "internalType": "bytes",
          "name": "",
          "type": "bytes"
        }
      ],
      "stateMutability": "nonpayable",
      "type": "function"
    },
    {
      "inputs": [],
      "name": "enterRaffle",
      "outputs": [],
      "stateMutability": "payable",
      "type": "function"
    },
    {
      "inputs": [],
      "name": "getEntranceFee",
      "outputs": [
        {
          "internalType": "uint256",
          "name": "",
          "type": "uint256"
        }
      ],
      "stateMutability": "view",
      "type": "function"
    },
    {
      "inputs": [],
      "name": "getInterval",
      "outputs": [
        {
          "internalType": "uint256",
          "name": "",
          "type": "uint256"
        }
      ],
      "stateMutability": "view",
      "type": "function"
    },
    {
      "inputs": [],
      "name": "getLatestTimeStamp",
      "outputs": [
        {
          "internalType": "uint256",
          "name": "",
          "type": "uint256"
        }
      ],
      "stateMutability": "view",
      "type": "function"
    },
    {
      "inputs": [],
      "name": "getNumWords",
      "outputs": [
        {
          "internalType": "uint32",
          "name": "",
          "type": "uint32"
        }
      ],
      "stateMutability": "pure",
      "type": "function"
    },
    {
      "inputs": [],
      "name": "getNumberOfPlayers",
      "outputs": [
        {
          "internalType": "uint256",
          "name": "",
          "type": "uint256"
        }
      ],
      "stateMutability": "view",
      "type": "function"
    },
    {
      "inputs": [
        {
          "internalType": "uint256",
          "name": "index",
          "type": "uint256"
        }
      ],
      "name": "getPlayer",
      "outputs": [
        {
          "internalType": "address",
          "name": "",
          "type": "address"
        }
      ],
      "stateMutability": "view",
      "type": "function"
    },
    {
      "inputs": [],
      "name": "getRaffleState",
      "outputs": [
        {
          "internalType": "enum Raffle.RaffleState",
          "name": "",
          "type": "uint8"
        }
      ],
      "stateMutability": "view",
      "type": "function"
    },
    {
      "inputs": [],
      "name": "getRecentWinner",
      "outputs": [
        {
          "internalType": "address",
          "name": "",
          "type": "address"
        }
      ],
      "stateMutability": "view",
      "type": "function"
    },
    {
      "inputs": [],
      "name": "getRequestConfirmations",
      "outputs": [
        {
          "internalType": "uint16",
          "name": "",
          "type": "uint16"
        }
      ],
      "stateMutability": "pure",
      "type": "function"
    },
    {
      "inputs": [
        {
          "internalType": "bytes",
          "name": "",
          "type": "bytes"
        }
      ],
      "name": "performUpkeep",
      "outputs": [],
      "stateMutability": "nonpayable",
      "type": "function"
    },
    {
      "inputs": [
        {
          "internalType": "uint256",
          "name": "requestId",
          "type": "uint256"
        },
        {
          "internalType": "uint256[]",
          "name": "randomWords",
          "type": "uint256[]"
        }
      ],
      "name": "rawFulfillRandomWords",
      "outputs": [],
      "stateMutability": "nonpayable",
      "type": "function"
    }
  ],
  "transactionHash": "0x46ea71d9af254c84d9673bea1dad3641b7ee14733bcd16aecdab86c3583d6adc",
  "args": [
    "0x5FbDB2315678afecb367f032d93F642f64180aa3",
    "10000000000000000",
    "0xd89b2bf150e3b9e13446986e571fb9cab24b13cea0a43ea20a6049a85cc807cc",
    "1",
    "500000",
    "30"
  ],
  "numDeployments": 1,
  "solcInputHash": "5c9fe32942d162d34e8b6cf6593f9f78",
  "bytecode": "0x6101606040523480156200001257600080fd5b506040516200185e3803806200185e8339818101604052810190620000389190620002a0565b858073ffffffffffffffffffffffffffffffffffffffff1660808173ffffffffffffffffffffffffffffffffffffffff1660601b81525050508573ffffffffffffffffffffffffffffffffffffffff1660c08173ffffffffffffffffffffffffffffffffffffffff1660601b815250508460a081815250508360e081815250508267ffffffffffffffff166101008167ffffffffffffffff1660c01b815250508163ffffffff166101208163ffffffff1660e01b815250506000600160146101000a81548160ff021916908360018111156200011957620001186200033c565b5b0217905550426002819055508061014081815250505050505050506200036b565b600080fd5b600073ffffffffffffffffffffffffffffffffffffffff82169050919050565b60006200016c826200013f565b9050919050565b6200017e816200015f565b81146200018a57600080fd5b50565b6000815190506200019e8162000173565b92915050565b6000819050919050565b620001b981620001a4565b8114620001c557600080fd5b50565b600081519050620001d981620001ae565b92915050565b6000819050919050565b620001f481620001df565b81146200020057600080fd5b50565b6000815190506200021481620001e9565b92915050565b600067ffffffffffffffff82169050919050565b62000239816200021a565b81146200024557600080fd5b50565b60008151905062000259816200022e565b92915050565b600063ffffffff82169050919050565b6200027a816200025f565b81146200028657600080fd5b50565b6000815190506200029a816200026f565b92915050565b60008060008060008060c08789031215620002c057620002bf6200013a565b5b6000620002d089828a016200018d565b9650506020620002e389828a01620001c8565b9550506040620002f689828a0162000203565b94505060606200030989828a0162000248565b93505060806200031c89828a0162000289565b92505060a06200032f89828a01620001c8565b9150509295509295509295565b7f4e487b7100000000000000000000000000000000000000000000000000000000600052602160045260246000fd5b60805160601c60a05160c05160601c60e0516101005160c01c6101205160e01c61014051611477620003e7600039600081816107ec015261085a015260006106a50152600061068201526000610661015260006106250152600081816102fa01526103f7015260008181610337015261038b01526114776000f3fe6080604052600436106100c25760003560e01c8063473f1ddc1161007f5780636e04ff0d116100595780636e04ff0d1461022557806391ad27b414610263578063e55ae4e81461028e578063fd6673f5146102cb576100c2565b8063473f1ddc146101a457806353a2c19a146101cf5780635f1b0fd8146101fa576100c2565b806309bc33a7146100c7578063115cbaf5146100f25780631fe543e31461011d5780632cfcc53914610146578063320229eb146101505780634585e33b1461017b575b600080fd5b3480156100d357600080fd5b506100dc6102f6565b6040516100e99190610bc2565b60405180910390f35b3480156100fe57600080fd5b5061010761031e565b6040516101149190610c54565b60405180910390f35b34801561012957600080fd5b50610144600480360381019061013f9190610e08565b610335565b005b61014e6103f5565b005b34801561015c57600080fd5b50610165610564565b6040516101729190610bc2565b60405180910390f35b34801561018757600080fd5b506101a2600480360381019061019d9190610ebf565b61056e565b005b3480156101b057600080fd5b506101b961076d565b6040516101c69190610f4d565b60405180910390f35b3480156101db57600080fd5b506101e4610797565b6040516101f19190610f87565b60405180910390f35b34801561020657600080fd5b5061020f6107a0565b60405161021c9190610fbf565b60405180910390f35b34801561023157600080fd5b5061024c6004803603810190610247919061108f565b6107a9565b60405161025a92919061117b565b60405180910390f35b34801561026f57600080fd5b50610278610856565b6040516102859190610bc2565b60405180910390f35b34801561029a57600080fd5b506102b560048036038101906102b091906111ab565b61087e565b6040516102c29190610f4d565b60405180910390f35b3480156102d757600080fd5b506102e06108c5565b6040516102ed9190610bc2565b60405180910390f35b60007f0000000000000000000000000000000000000000000000000000000000000000905090565b6000600160149054906101000a900460ff16905090565b7f000000000000000000000000000000000000000000000000000000000000000073ffffffffffffffffffffffffffffffffffffffff163373ffffffffffffffffffffffffffffffffffffffff16146103e757337f00000000000000000000000000000000000000000000000000000000000000006040517f1cf993f40000000000000000000000000000000000000000000000000000000081526004016103de9291906111d8565b60405180910390fd5b6103f182826108d1565b5050565b7f000000000000000000000000000000000000000000000000000000000000000034101561044f576040517fbd4e069500000000000000000000000000000000000000000000000000000000815260040160405180910390fd5b6000600181111561046357610462610bdd565b5b600160149054906101000a900460ff16600181111561048557610484610bdd565b5b146104bc576040517f1425571c00000000000000000000000000000000000000000000000000000000815260040160405180910390fd5b6000339080600181540180825580915050600190039060005260206000200160009091909190916101000a81548173ffffffffffffffffffffffffffffffffffffffff021916908373ffffffffffffffffffffffffffffffffffffffff1602179055503373ffffffffffffffffffffffffffffffffffffffff167f0805e1d667bddb8a95f0f09880cf94f403fb596ce79928d9f29b74203ba284d460405160405180910390a2565b6000600254905090565b6000610588604051806020016040528060008152506107a9565b509050806105f75747600080549050600160149054906101000a900460ff1660018111156105b9576105b8610bdd565b5b6040517fe059521b0000000000000000000000000000000000000000000000000000000081526004016105ee93929190611201565b60405180910390fd5b60018060146101000a81548160ff0219169083600181111561061c5761061b610bdd565b5b021790555060007f000000000000000000000000000000000000000000000000000000000000000073ffffffffffffffffffffffffffffffffffffffff16635d3b1d307f00000000000000000000000000000000000000000000000000000000000000007f000000000000000000000000000000000000000000000000000000000000000060037f000000000000000000000000000000000000000000000000000000000000000060016040518663ffffffff1660e01b81526004016106e6959493929190611274565b602060405180830381600087803b15801561070057600080fd5b505af1158015610714573d6000803e3d6000fd5b505050506040513d601f19601f8201168201806040525081019061073891906112dc565b9050807fcd6e45c8998311cab7e9d4385596cac867e20a0587194b954fa3a731c93ce78b60405160405180910390a250505050565b6000600160009054906101000a900473ffffffffffffffffffffffffffffffffffffffff16905090565b60006001905090565b60006003905090565b600060606000600160149054906101000a900460ff1660018111156107d1576107d0610bdd565b5b600060018111156107e5576107e4610bdd565b5b14905060007f0000000000000000000000000000000000000000000000000000000000000000600254426108199190611338565b119050600080600080549050119050600080471190508380156108395750825b80156108425750815b801561084b5750805b955050505050915091565b60007f0000000000000000000000000000000000000000000000000000000000000000905090565b60008082815481106108935761089261136c565b5b9060005260206000200160009054906101000a900473ffffffffffffffffffffffffffffffffffffffff169050919050565b60008080549050905090565b60008080549050826000815181106108ec576108eb61136c565b5b60200260200101516108fe91906113ca565b905060008082815481106109155761091461136c565b5b9060005260206000200160009054906101000a900473ffffffffffffffffffffffffffffffffffffffff16905080600160006101000a81548173ffffffffffffffffffffffffffffffffffffffff021916908373ffffffffffffffffffffffffffffffffffffffff160217905550600067ffffffffffffffff81111561099e5761099d610cc5565b5b6040519080825280602002602001820160405280156109cc5781602001602082028036833780820191505090505b50600090805190602001906109e2929190610b02565b50426002819055506000600160146101000a81548160ff02191690836001811115610a1057610a0f610bdd565b5b021790555060008173ffffffffffffffffffffffffffffffffffffffff1647604051610a3b9061142c565b60006040518083038185875af1925050503d8060008114610a78576040519150601f19603f3d011682016040523d82523d6000602084013e610a7d565b606091505b5050905080610ab8576040517fa1d04b3900000000000000000000000000000000000000000000000000000000815260040160405180910390fd5b8173ffffffffffffffffffffffffffffffffffffffff167f5b690ec4a06fe979403046eaeea5b3ce38524683c3001f662c8b5a829632f7df60405160405180910390a25050505050565b828054828255906000526020600020908101928215610b7b579160200282015b82811115610b7a5782518260006101000a81548173ffffffffffffffffffffffffffffffffffffffff021916908373ffffffffffffffffffffffffffffffffffffffff16021790555091602001919060010190610b22565b5b509050610b889190610b8c565b5090565b5b80821115610ba5576000816000905550600101610b8d565b5090565b6000819050919050565b610bbc81610ba9565b82525050565b6000602082019050610bd76000830184610bb3565b92915050565b7f4e487b7100000000000000000000000000000000000000000000000000000000600052602160045260246000fd5b60028110610c1d57610c1c610bdd565b5b50565b6000819050610c2e82610c0c565b919050565b6000610c3e82610c20565b9050919050565b610c4e81610c33565b82525050565b6000602082019050610c696000830184610c45565b92915050565b6000604051905090565b600080fd5b600080fd5b610c8c81610ba9565b8114610c9757600080fd5b50565b600081359050610ca981610c83565b92915050565b600080fd5b6000601f19601f8301169050919050565b7f4e487b7100000000000000000000000000000000000000000000000000000000600052604160045260246000fd5b610cfd82610cb4565b810181811067ffffffffffffffff82111715610d1c57610d1b610cc5565b5b80604052505050565b6000610d2f610c6f565b9050610d3b8282610cf4565b919050565b600067ffffffffffffffff821115610d5b57610d5a610cc5565b5b602082029050602081019050919050565b600080fd5b6000610d84610d7f84610d40565b610d25565b90508083825260208201905060208402830185811115610da757610da6610d6c565b5b835b81811015610dd05780610dbc8882610c9a565b845260208401935050602081019050610da9565b5050509392505050565b600082601f830112610def57610dee610caf565b5b8135610dff848260208601610d71565b91505092915050565b60008060408385031215610e1f57610e1e610c79565b5b6000610e2d85828601610c9a565b925050602083013567ffffffffffffffff811115610e4e57610e4d610c7e565b5b610e5a85828601610dda565b9150509250929050565b600080fd5b60008083601f840112610e7f57610e7e610caf565b5b8235905067ffffffffffffffff811115610e9c57610e9b610e64565b5b602083019150836001820283011115610eb857610eb7610d6c565b5b9250929050565b60008060208385031215610ed657610ed5610c79565b5b600083013567ffffffffffffffff811115610ef457610ef3610c7e565b5b610f0085828601610e69565b92509250509250929050565b600073ffffffffffffffffffffffffffffffffffffffff82169050919050565b6000610f3782610f0c565b9050919050565b610f4781610f2c565b82525050565b6000602082019050610f626000830184610f3e565b92915050565b600063ffffffff82169050919050565b610f8181610f68565b82525050565b6000602082019050610f9c6000830184610f78565b92915050565b600061ffff82169050919050565b610fb981610fa2565b82525050565b6000602082019050610fd46000830184610fb0565b92915050565b600080fd5b600067ffffffffffffffff821115610ffa57610ff9610cc5565b5b61100382610cb4565b9050602081019050919050565b82818337600083830152505050565b600061103261102d84610fdf565b610d25565b90508281526020810184848401111561104e5761104d610fda565b5b611059848285611010565b509392505050565b600082601f83011261107657611075610caf565b5b813561108684826020860161101f565b91505092915050565b6000602082840312156110a5576110a4610c79565b5b600082013567ffffffffffffffff8111156110c3576110c2610c7e565b5b6110cf84828501611061565b91505092915050565b60008115159050919050565b6110ed816110d8565b82525050565b600081519050919050565b600082825260208201905092915050565b60005b8381101561112d578082015181840152602081019050611112565b8381111561113c576000848401525b50505050565b600061114d826110f3565b61115781856110fe565b935061116781856020860161110f565b61117081610cb4565b840191505092915050565b600060408201905061119060008301856110e4565b81810360208301526111a28184611142565b90509392505050565b6000602082840312156111c1576111c0610c79565b5b60006111cf84828501610c9a565b91505092915050565b60006040820190506111ed6000830185610f3e565b6111fa6020830184610f3e565b9392505050565b60006060820190506112166000830186610bb3565b6112236020830185610bb3565b6112306040830184610bb3565b949350505050565b6000819050919050565b61124b81611238565b82525050565b600067ffffffffffffffff82169050919050565b61126e81611251565b82525050565b600060a0820190506112896000830188611242565b6112966020830187611265565b6112a36040830186610fb0565b6112b06060830185610f78565b6112bd6080830184610f78565b9695505050505050565b6000815190506112d681610c83565b92915050565b6000602082840312156112f2576112f1610c79565b5b6000611300848285016112c7565b91505092915050565b7f4e487b7100000000000000000000000000000000000000000000000000000000600052601160045260246000fd5b600061134382610ba9565b915061134e83610ba9565b92508282101561136157611360611309565b5b828203905092915050565b7f4e487b7100000000000000000000000000000000000000000000000000000000600052603260045260246000fd5b7f4e487b7100000000000000000000000000000000000000000000000000000000600052601260045260246000fd5b60006113d582610ba9565b91506113e083610ba9565b9250826113f0576113ef61139b565b5b828206905092915050565b600081905092915050565b50565b60006114166000836113fb565b915061142182611406565b600082019050919050565b600061143782611409565b915081905091905056fea2646970667358221220b0896b6050a11f445b315e757ef2edf42c561d1ebee51d8277ab31de7149eec464736f6c63430008080033",
  "devdoc": {
    "kind": "dev",
    "methods": {
      "checkUpkeep(bytes)": {
        "details": "This is the function that the Chainlink Keeper nodes call they look for the `upkeepNeeded` to return true The following should be true in oreder to return true: 1. Our time interval should have passed 2. Lottery should have at least 1 player and have some ETH 3. Our subscription is funded with LINK 4. Raffle should be in an \"open\" state"
      }
    },
    "version": 1
  },
  "userdoc": {
    "kind": "user",
    "methods": {},
    "version": 1
  },
  "storageLayout": {
    "storage": [
      {
        "astId": 870,
        "contract": "contracts/raffle.sol:Raffle",
        "label": "s_players",
        "offset": 0,
        "slot": "0",
        "type": "t_array(t_address_payable)dyn_storage"
      },
      {
        "astId": 887,
        "contract": "contracts/raffle.sol:Raffle",
        "label": "s_recentWinner",
        "offset": 0,
        "slot": "1",
        "type": "t_address"
      },
      {
        "astId": 890,
        "contract": "contracts/raffle.sol:Raffle",
        "label": "s_raffleState",
        "offset": 20,
        "slot": "1",
        "type": "t_enum(RaffleState)865"
      },
      {
        "astId": 892,
        "contract": "contracts/raffle.sol:Raffle",
        "label": "s_lastTimeStamp",
        "offset": 0,
        "slot": "2",
        "type": "t_uint256"
      }
    ],
    "types": {
      "t_address": {
        "encoding": "inplace",
        "label": "address",
        "numberOfBytes": "20"
      },
      "t_address_payable": {
        "encoding": "inplace",
        "label": "address payable",
        "numberOfBytes": "20"
      },
      "t_array(t_address_payable)dyn_storage": {
        "base": "t_address_payable",
        "encoding": "dynamic_array",
        "label": "address payable[]",
        "numberOfBytes": "32"
      },
      "t_enum(RaffleState)865": {
        "encoding": "inplace",
        "label": "enum Raffle.RaffleState",
        "numberOfBytes": "1"
      },
      "t_uint256": {
        "encoding": "inplace",
        "label": "uint256",
        "numberOfBytes": "32"
      }
    }
  }
}